{
  "contractName": "Election",
  "abi": [
    {
      "inputs": [],
      "payable": false,
      "stateMutability": "nonpayable",
      "type": "constructor"
    },
    {
      "anonymous": false,
      "inputs": [
        {
          "indexed": false,
          "internalType": "string",
          "name": "_questionId",
          "type": "string"
        }
      ],
      "name": "setQuestionEvent",
      "type": "event"
    },
    {
      "anonymous": false,
      "inputs": [
        {
          "indexed": true,
          "internalType": "uint256",
          "name": "_answerId",
          "type": "uint256"
        }
      ],
      "name": "votedEvent",
      "type": "event"
    },
    {
      "constant": true,
      "inputs": [
        {
          "internalType": "uint256",
          "name": "",
          "type": "uint256"
        }
      ],
      "name": "answers",
      "outputs": [
        {
          "internalType": "uint256",
          "name": "id",
          "type": "uint256"
        },
        {
          "internalType": "string",
          "name": "name",
          "type": "string"
        },
        {
          "internalType": "uint256",
          "name": "voteCount",
          "type": "uint256"
        }
      ],
      "payable": false,
      "stateMutability": "view",
      "type": "function"
    },
    {
      "constant": true,
      "inputs": [],
      "name": "answersCount",
      "outputs": [
        {
          "internalType": "uint256",
          "name": "",
          "type": "uint256"
        }
      ],
      "payable": false,
      "stateMutability": "view",
      "type": "function"
    },
    {
      "constant": true,
      "inputs": [],
      "name": "hasQuestioned",
      "outputs": [
        {
          "internalType": "bool",
          "name": "",
          "type": "bool"
        }
      ],
      "payable": false,
      "stateMutability": "view",
      "type": "function"
    },
    {
      "constant": true,
      "inputs": [],
      "name": "question",
      "outputs": [
        {
          "internalType": "string",
          "name": "",
          "type": "string"
        }
      ],
      "payable": false,
      "stateMutability": "view",
      "type": "function"
    },
    {
      "constant": true,
      "inputs": [
        {
          "internalType": "address",
          "name": "",
          "type": "address"
        }
      ],
      "name": "voters",
      "outputs": [
        {
          "internalType": "bool",
          "name": "",
          "type": "bool"
        }
      ],
      "payable": false,
      "stateMutability": "view",
      "type": "function"
    },
    {
      "constant": false,
      "inputs": [
        {
          "internalType": "string",
          "name": "_questionId",
          "type": "string"
        }
      ],
      "name": "setQuestion",
      "outputs": [],
      "payable": false,
      "stateMutability": "nonpayable",
      "type": "function"
    },
    {
      "constant": false,
      "inputs": [
        {
          "internalType": "uint256",
          "name": "_answerId",
          "type": "uint256"
        }
      ],
      "name": "vote",
      "outputs": [],
      "payable": false,
      "stateMutability": "nonpayable",
      "type": "function"
    }
  ],
  "bytecode": "0x60806040526000600160006101000a81548160ff02191690831515021790555034801561002b57600080fd5b50604051806020016040528060008152506000908051906020019061005192919061015b565b506100966040518060400160405280600581526020017f41686d61640000000000000000000000000000000000000000000000000000008152506100df60201b60201c565b6100da6040518060400160405280600581526020017f416d6d61720000000000000000000000000000000000000000000000000000008152506100df60201b60201c565b610280565b60046000815480929190600101919050555060405180606001604052806004548152602001828152602001600081525060036000600454815260200190815260200160002060008201518160000155602082015181600101908051906020019061014a9291906101db565b506040820151816002015590505050565b828054600181600116156101000203166002900490600052602060002090601f016020900481019282601f1061019c57805160ff19168380011785556101ca565b828001600101855582156101ca579182015b828111156101c95782518255916020019190600101906101ae565b5b5090506101d7919061025b565b5090565b828054600181600116156101000203166002900490600052602060002090601f016020900481019282601f1061021c57805160ff191683800117855561024a565b8280016001018555821561024a579182015b8281111561024957825182559160200191906001019061022e565b5b509050610257919061025b565b5090565b61027d91905b80821115610279576000816000905550600101610261565b5090565b90565b6107a28061028f6000396000f3fe608060405234801561001057600080fd5b506004361061007d5760003560e01c80633fad9ae01161005b5780633fad9ae014610187578063799e18c01461020a578063a3ec138d146102c5578063e2ca6eb7146103215761007d565b80630121b93f1461008257806317599cc5146100b0578063357916c814610165575b600080fd5b6100ae6004803603602081101561009857600080fd5b810190808035906020019092919050505061033f565b005b6100dc600480360360208110156100c657600080fd5b810190808035906020019092919050505061045f565b6040518084815260200180602001838152602001828103825284818151815260200191508051906020019080838360005b8381101561012857808201518184015260208101905061010d565b50505050905090810190601f1680156101555780820380516001836020036101000a031916815260200191505b5094505050505060405180910390f35b61016d610521565b604051808215151515815260200191505060405180910390f35b61018f610534565b6040518080602001828103825283818151815260200191508051906020019080838360005b838110156101cf5780820151818401526020810190506101b4565b50505050905090810190601f1680156101fc5780820380516001836020036101000a031916815260200191505b509250505060405180910390f35b6102c36004803603602081101561022057600080fd5b810190808035906020019064010000000081111561023d57600080fd5b82018360208201111561024f57600080fd5b8035906020019184600183028401116401000000008311171561027157600080fd5b91908080601f016020809104026020016040519081016040528093929190818152602001838380828437600081840152601f19601f8201169050808301925050505050505091929192905050506105d2565b005b610307600480360360208110156102db57600080fd5b81019080803573ffffffffffffffffffffffffffffffffffffffff1690602001909291905050506106a2565b604051808215151515815260200191505060405180910390f35b6103296106c2565b6040518082815260200191505060405180910390f35b600260003373ffffffffffffffffffffffffffffffffffffffff1673ffffffffffffffffffffffffffffffffffffffff16815260200190815260200160002060009054906101000a900460ff161561039657600080fd5b6000811180156103a857506004548111155b6103b157600080fd5b6001600260003373ffffffffffffffffffffffffffffffffffffffff1673ffffffffffffffffffffffffffffffffffffffff16815260200190815260200160002060006101000a81548160ff0219169083151502179055506003600082815260200190815260200160002060020160008154809291906001019190505550807ffff3c900d938d21d0990d786e819f29b8d05c1ef587b462b939609625b684b1660405160405180910390a250565b6003602052806000526040600020600091509050806000015490806001018054600181600116156101000203166002900480601f0160208091040260200160405190810160405280929190818152602001828054600181600116156101000203166002900480156105115780601f106104e657610100808354040283529160200191610511565b820191906000526020600020905b8154815290600101906020018083116104f457829003601f168201915b5050505050908060020154905083565b600160009054906101000a900460ff1681565b60008054600181600116156101000203166002900480601f0160208091040260200160405190810160405280929190818152602001828054600181600116156101000203166002900480156105ca5780601f1061059f576101008083540402835291602001916105ca565b820191906000526020600020905b8154815290600101906020018083116105ad57829003601f168201915b505050505081565b80600090805190602001906105e89291906106c8565b5060018060006101000a81548160ff0219169083151502179055507fa8f3cde1c319e974bb8ea775ccb11130849c164364dc9c4c205b0c1c8e189dff816040518080602001828103825283818151815260200191508051906020019080838360005b8381101561066557808201518184015260208101905061064a565b50505050905090810190601f1680156106925780820380516001836020036101000a031916815260200191505b509250505060405180910390a150565b60026020528060005260406000206000915054906101000a900460ff1681565b60045481565b828054600181600116156101000203166002900490600052602060002090601f016020900481019282601f1061070957805160ff1916838001178555610737565b82800160010185558215610737579182015b8281111561073657825182559160200191906001019061071b565b5b5090506107449190610748565b5090565b61076a91905b8082111561076657600081600090555060010161074e565b5090565b9056fea265627a7a72315820cf2b0ed81c77206363c37cf7dacf5633b09496cb754707f380863352223a97aa64736f6c63430005100032",
  "source": "pragma solidity ^0.5.16;\r\n\r\ncontract Election {\r\n    // Model a Answer\r\n    struct Answer {\r\n        uint id;\r\n        string name;\r\n        uint voteCount;\r\n    }\r\n\r\n    string public question;\r\n\r\n    bool public hasQuestioned = false;\r\n    // Store accounts that have voted\r\n    mapping(address => bool) public voters;\r\n    // Store Answers\r\n    // Fetch Answer\r\n    mapping(uint => Answer) public answers;\r\n    // Store answers Count\r\n    uint public answersCount;\r\n\r\n    // voted event\r\n    event votedEvent (\r\n        uint indexed _answerId\r\n    );\r\n\r\n    event setQuestionEvent (\r\n        string _questionId\r\n    );\r\n\r\n    constructor() public {\r\n        question = \"\";\r\n        addAnswer(\"Ahmad\");\r\n        addAnswer(\"Ammar\");\r\n    }\r\n\r\n    function addAnswer (string memory _name) private {\r\n        answersCount ++;\r\n        answers[answersCount] = Answer(answersCount, _name, 0);\r\n    }\r\n\r\n    function setQuestion (string memory _questionId) public {\r\n        question = _questionId;\r\n        hasQuestioned = true;\r\n        emit setQuestionEvent(_questionId);\r\n    }\r\n\r\n\r\n    function vote (uint _answerId) public {\r\n        // require that they haven't voted before\r\n        require(!voters[msg.sender]);\r\n\r\n        // require a valid answer\r\n        require(_answerId > 0 && _answerId <= answersCount);\r\n\r\n        // record that voter has voted\r\n        voters[msg.sender] = true;\r\n\r\n        // update answer vote Count\r\n        answers[_answerId].voteCount ++;\r\n\r\n        // trigger voted event\r\n        emit votedEvent(_answerId);\r\n    }\r\n}",
  "sourcePath": "C:\\Users\\ahabu\\election\\contracts\\Election.sol",
  "compiler": {
    "name": "solc",
    "version": "0.5.16+commit.9c3226ce.Emscripten.clang"
  },
  "schemaVersion": "3.4.3",
  "updatedAt": "2021-11-30T01:54:58.957Z",
  "networkType": "ethereum",
  "devdoc": {
    "methods": {}
  },
  "userdoc": {
    "methods": {}
  }
}