{
  "contractName": "Poll",
  "abi": [
    {
      "inputs": [],
      "payable": false,
      "stateMutability": "nonpayable",
      "type": "constructor"
    },
    {
      "anonymous": false,
      "inputs": [
        {
          "indexed": false,
          "internalType": "string",
          "name": "_descriptionId",
          "type": "string"
        }
      ],
      "name": "setDescriptionEvent",
      "type": "event"
    },
    {
      "anonymous": false,
      "inputs": [
        {
          "indexed": false,
          "internalType": "string",
          "name": "_questionId",
          "type": "string"
        }
      ],
      "name": "setQuestionEvent",
      "type": "event"
    },
    {
      "anonymous": false,
      "inputs": [
        {
          "indexed": true,
          "internalType": "uint256",
          "name": "_answerId",
          "type": "uint256"
        }
      ],
      "name": "votedEvent",
      "type": "event"
    },
    {
      "constant": true,
      "inputs": [
        {
          "internalType": "uint256",
          "name": "",
          "type": "uint256"
        }
      ],
      "name": "answers",
      "outputs": [
        {
          "internalType": "uint256",
          "name": "id",
          "type": "uint256"
        },
        {
          "internalType": "string",
          "name": "name",
          "type": "string"
        },
        {
          "internalType": "uint256",
          "name": "voteCount",
          "type": "uint256"
        }
      ],
      "payable": false,
      "stateMutability": "view",
      "type": "function"
    },
    {
      "constant": true,
      "inputs": [],
      "name": "answersCount",
      "outputs": [
        {
          "internalType": "uint256",
          "name": "",
          "type": "uint256"
        }
      ],
      "payable": false,
      "stateMutability": "view",
      "type": "function"
    },
    {
      "constant": true,
      "inputs": [],
      "name": "description",
      "outputs": [
        {
          "internalType": "string",
          "name": "",
          "type": "string"
        }
      ],
      "payable": false,
      "stateMutability": "view",
      "type": "function"
    },
    {
      "constant": true,
      "inputs": [],
      "name": "hasPolled",
      "outputs": [
        {
          "internalType": "bool",
          "name": "",
          "type": "bool"
        }
      ],
      "payable": false,
      "stateMutability": "view",
      "type": "function"
    },
    {
      "constant": true,
      "inputs": [],
      "name": "question",
      "outputs": [
        {
          "internalType": "string",
          "name": "",
          "type": "string"
        }
      ],
      "payable": false,
      "stateMutability": "view",
      "type": "function"
    },
    {
      "constant": true,
      "inputs": [
        {
          "internalType": "address",
          "name": "",
          "type": "address"
        }
      ],
      "name": "voters",
      "outputs": [
        {
          "internalType": "bool",
          "name": "",
          "type": "bool"
        }
      ],
      "payable": false,
      "stateMutability": "view",
      "type": "function"
    },
    {
      "constant": false,
      "inputs": [
        {
          "internalType": "string",
          "name": "_questionId",
          "type": "string"
        }
      ],
      "name": "setQuestion",
      "outputs": [],
      "payable": false,
      "stateMutability": "nonpayable",
      "type": "function"
    },
    {
      "constant": false,
      "inputs": [
        {
          "internalType": "string",
          "name": "_descriptionId",
          "type": "string"
        }
      ],
      "name": "setDescription",
      "outputs": [],
      "payable": false,
      "stateMutability": "nonpayable",
      "type": "function"
    },
    {
      "constant": false,
      "inputs": [
        {
          "internalType": "string",
          "name": "_answerId",
          "type": "string"
        }
      ],
      "name": "setAnswer",
      "outputs": [],
      "payable": false,
      "stateMutability": "nonpayable",
      "type": "function"
    },
    {
      "constant": false,
      "inputs": [
        {
          "internalType": "uint256",
          "name": "_answerId",
          "type": "uint256"
        }
      ],
      "name": "vote",
      "outputs": [],
      "payable": false,
      "stateMutability": "nonpayable",
      "type": "function"
    }
  ],
  "bytecode": "0x60806040526000600260006101000a81548160ff02191690831515021790555034801561002b57600080fd5b506040518060200160405280600081525060009080519060200190610051929190610057565b506100fc565b828054600181600116156101000203166002900490600052602060002090601f016020900481019282601f1061009857805160ff19168380011785556100c6565b828001600101855582156100c6579182015b828111156100c55782518255916020019190600101906100aa565b5b5090506100d391906100d7565b5090565b6100f991905b808211156100f55760008160009055506001016100dd565b5090565b90565b610c198061010b6000396000f3fe608060405234801561001057600080fd5b506004361061009e5760003560e01c80637284e416116100665780637284e416146102e6578063799e18c01461036957806390c3f38f14610424578063a3ec138d146104df578063e2ca6eb71461053b5761009e565b80630121b93f146100a357806317599cc5146100d15780633fad9ae0146101865780635143ca361461020957806355c9f8071461022b575b600080fd5b6100cf600480360360208110156100b957600080fd5b8101908080359060200190929190505050610559565b005b6100fd600480360360208110156100e757600080fd5b8101908080359060200190929190505050610679565b6040518084815260200180602001838152602001828103825284818151815260200191508051906020019080838360005b8381101561014957808201518184015260208101905061012e565b50505050905090810190601f1680156101765780820380516001836020036101000a031916815260200191505b5094505050505060405180910390f35b61018e61073b565b6040518080602001828103825283818151815260200191508051906020019080838360005b838110156101ce5780820151818401526020810190506101b3565b50505050905090810190601f1680156101fb5780820380516001836020036101000a031916815260200191505b509250505060405180910390f35b6102116107d9565b604051808215151515815260200191505060405180910390f35b6102e46004803603602081101561024157600080fd5b810190808035906020019064010000000081111561025e57600080fd5b82018360208201111561027057600080fd5b8035906020019184600183028401116401000000008311171561029257600080fd5b91908080601f016020809104026020016040519081016040528093929190818152602001838380828437600081840152601f19601f8201169050808301925050505050505091929192905050506107ec565b005b6102ee6107f8565b6040518080602001828103825283818151815260200191508051906020019080838360005b8381101561032e578082015181840152602081019050610313565b50505050905090810190601f16801561035b5780820380516001836020036101000a031916815260200191505b509250505060405180910390f35b6104226004803603602081101561037f57600080fd5b810190808035906020019064010000000081111561039c57600080fd5b8201836020820111156103ae57600080fd5b803590602001918460018302840111640100000000831117156103d057600080fd5b91908080601f016020809104026020016040519081016040528093929190818152602001838380828437600081840152601f19601f820116905080830192505050505050509192919290505050610896565b005b6104dd6004803603602081101561043a57600080fd5b810190808035906020019064010000000081111561045757600080fd5b82018360208201111561046957600080fd5b8035906020019184600183028401116401000000008311171561048b57600080fd5b91908080601f016020809104026020016040519081016040528093929190818152602001838380828437600081840152601f19601f820116905080830192505050505050509192919290505050610967565b005b610521600480360360208110156104f557600080fd5b81019080803573ffffffffffffffffffffffffffffffffffffffff169060200190929190505050610a1d565b604051808215151515815260200191505060405180910390f35b610543610a3d565b6040518082815260200191505060405180910390f35b600360003373ffffffffffffffffffffffffffffffffffffffff1673ffffffffffffffffffffffffffffffffffffffff16815260200190815260200160002060009054906101000a900460ff16156105b057600080fd5b6000811180156105c257506005548111155b6105cb57600080fd5b6001600360003373ffffffffffffffffffffffffffffffffffffffff1673ffffffffffffffffffffffffffffffffffffffff16815260200190815260200160002060006101000a81548160ff0219169083151502179055506004600082815260200190815260200160002060020160008154809291906001019190505550807ffff3c900d938d21d0990d786e819f29b8d05c1ef587b462b939609625b684b1660405160405180910390a250565b6004602052806000526040600020600091509050806000015490806001018054600181600116156101000203166002900480601f01602080910402602001604051908101604052809291908181526020018280546001816001161561010002031660029004801561072b5780601f106107005761010080835404028352916020019161072b565b820191906000526020600020905b81548152906001019060200180831161070e57829003601f168201915b5050505050908060020154905083565b60008054600181600116156101000203166002900480601f0160208091040260200160405190810160405280929190818152602001828054600181600116156101000203166002900480156107d15780601f106107a6576101008083540402835291602001916107d1565b820191906000526020600020905b8154815290600101906020018083116107b457829003601f168201915b505050505081565b600260009054906101000a900460ff1681565b6107f581610a43565b50565b60018054600181600116156101000203166002900480601f01602080910402602001604051908101604052809291908181526020018280546001816001161561010002031660029004801561088e5780601f106108635761010080835404028352916020019161088e565b820191906000526020600020905b81548152906001019060200180831161087157829003601f168201915b505050505081565b80600090805190602001906108ac929190610abf565b506001600260006101000a81548160ff0219169083151502179055507fa8f3cde1c319e974bb8ea775ccb11130849c164364dc9c4c205b0c1c8e189dff816040518080602001828103825283818151815260200191508051906020019080838360005b8381101561092a57808201518184015260208101905061090f565b50505050905090810190601f1680156109575780820380516001836020036101000a031916815260200191505b509250505060405180910390a150565b806001908051906020019061097d929190610abf565b507fa8f3cde1c319e974bb8ea775ccb11130849c164364dc9c4c205b0c1c8e189dff816040518080602001828103825283818151815260200191508051906020019080838360005b838110156109e05780820151818401526020810190506109c5565b50505050905090810190601f168015610a0d5780820380516001836020036101000a031916815260200191505b509250505060405180910390a150565b60036020528060005260406000206000915054906101000a900460ff1681565b60055481565b600560008154809291906001019190505550604051806060016040528060055481526020018281526020016000815250600460006005548152602001908152602001600020600082015181600001556020820151816001019080519060200190610aae929190610b3f565b506040820151816002015590505050565b828054600181600116156101000203166002900490600052602060002090601f016020900481019282601f10610b0057805160ff1916838001178555610b2e565b82800160010185558215610b2e579182015b82811115610b2d578251825591602001919060010190610b12565b5b509050610b3b9190610bbf565b5090565b828054600181600116156101000203166002900490600052602060002090601f016020900481019282601f10610b8057805160ff1916838001178555610bae565b82800160010185558215610bae579182015b82811115610bad578251825591602001919060010190610b92565b5b509050610bbb9190610bbf565b5090565b610be191905b80821115610bdd576000816000905550600101610bc5565b5090565b9056fea265627a7a7231582081fcad928bff1366a0d68a75e60b5077d53d1d484442fe7130cebe817b49066f64736f6c63430005100032",
  "source": "pragma solidity ^0.5.16;\r\n\r\ncontract Poll {\r\n    // Model a Answer\r\n    struct Answer {\r\n        uint id;\r\n        string name;\r\n        uint voteCount;\r\n    }\r\n\r\n    string public question;\r\n\r\n    string public description;\r\n\r\n    bool public hasPolled = false;\r\n    // Store accounts that have voted\r\n    mapping(address => bool) public voters;\r\n    // Store Answers\r\n    // Fetch Answer\r\n    mapping(uint => Answer) public answers;\r\n    // Store answers Count\r\n    uint public answersCount;\r\n\r\n    // voted event\r\n    event votedEvent (\r\n        uint indexed _answerId\r\n    );\r\n\r\n    event setQuestionEvent (\r\n        string _questionId\r\n    );\r\n\r\n        event setDescriptionEvent (\r\n        string _descriptionId\r\n    );\r\n\r\n    constructor() public {\r\n        question = \"\";\r\n    }\r\n\r\n    function addAnswer (string memory answer) private {\r\n        answersCount ++;\r\n        answers[answersCount] = Answer(answersCount, answer, 0);\r\n    }\r\n\r\n    function setQuestion (string memory _questionId) public {\r\n        question = _questionId;\r\n        hasPolled = true;\r\n        emit setQuestionEvent(_questionId);\r\n    }\r\n\r\n    function setDescription (string memory _descriptionId) public {\r\n        description = _descriptionId;\r\n        emit setQuestionEvent(_descriptionId);\r\n    }\r\n\r\n    function setAnswer (string memory _answerId) public {\r\n        addAnswer(_answerId);\r\n    }\r\n\r\n\r\n    function vote (uint _answerId) public {\r\n        // require that they haven't voted before\r\n        require(!voters[msg.sender]);\r\n\r\n        // require a valid answer\r\n        require(_answerId > 0 && _answerId <= answersCount);\r\n\r\n        // record that voter has voted\r\n        voters[msg.sender] = true;\r\n\r\n        // update answer vote Count\r\n        answers[_answerId].voteCount ++;\r\n\r\n        // trigger voted event\r\n        emit votedEvent(_answerId);\r\n    }\r\n}",
  "sourcePath": "C:\\Users\\ahabu\\PollWithFriends\\contracts\\Poll.sol",
  "compiler": {
    "name": "solc",
    "version": "0.5.16+commit.9c3226ce.Emscripten.clang"
  },
  "schemaVersion": "3.4.3",
  "updatedAt": "2021-12-05T23:54:12.924Z",
  "networkType": "ethereum",
  "devdoc": {
    "methods": {}
  },
  "userdoc": {
    "methods": {}
  }
}